{
  "contractName": "HealthcareContract",
  "abi": [
    {
      "inputs": [],
      "stateMutability": "nonpayable",
      "type": "constructor"
    },
    {
      "anonymous": false,
      "inputs": [
        {
          "indexed": false,
          "internalType": "address",
          "name": "patient",
          "type": "address"
        }
      ],
      "name": "MedicalRecordAdded",
      "type": "event"
    },
    {
      "anonymous": false,
      "inputs": [
        {
          "indexed": false,
          "internalType": "address",
          "name": "patient",
          "type": "address"
        }
      ],
      "name": "PatientCreated",
      "type": "event"
    },
    {
      "anonymous": false,
      "inputs": [
        {
          "indexed": false,
          "internalType": "address",
          "name": "patient",
          "type": "address"
        },
        {
          "indexed": false,
          "internalType": "address",
          "name": "entity",
          "type": "address"
        }
      ],
      "name": "RecordAccessAssinged",
      "type": "event"
    },
    {
      "anonymous": false,
      "inputs": [
        {
          "indexed": false,
          "internalType": "address",
          "name": "patient",
          "type": "address"
        },
        {
          "indexed": false,
          "internalType": "address",
          "name": "doctor",
          "type": "address"
        }
      ],
      "name": "RecordAccessRevoked",
      "type": "event"
    },
    {
      "inputs": [
        {
          "internalType": "string",
          "name": "name",
          "type": "string"
        },
        {
          "internalType": "uint256",
          "name": "age",
          "type": "uint256"
        }
      ],
      "name": "addPatient",
      "outputs": [],
      "stateMutability": "nonpayable",
      "type": "function"
    },
    {
      "inputs": [
        {
          "internalType": "uint128",
          "name": "patientId",
          "type": "uint128"
        },
        {
          "internalType": "string",
          "name": "medicalRecord",
          "type": "string"
        }
      ],
      "name": "addMedicalRecord",
      "outputs": [],
      "stateMutability": "nonpayable",
      "type": "function"
    },
    {
      "inputs": [
        {
          "internalType": "uint128",
          "name": "patientId",
          "type": "uint128"
        },
        {
          "internalType": "address",
          "name": "entity",
          "type": "address"
        },
        {
          "internalType": "bool",
          "name": "isDoctor",
          "type": "bool"
        }
      ],
      "name": "grantAccess",
      "outputs": [],
      "stateMutability": "nonpayable",
      "type": "function"
    },
    {
      "inputs": [
        {
          "internalType": "uint128",
          "name": "patientId",
          "type": "uint128"
        },
        {
          "internalType": "address",
          "name": "entity",
          "type": "address"
        },
        {
          "internalType": "bool",
          "name": "isDoctor",
          "type": "bool"
        }
      ],
      "name": "revokeAccess",
      "outputs": [],
      "stateMutability": "nonpayable",
      "type": "function"
    },
    {
      "inputs": [
        {
          "internalType": "uint128",
          "name": "patientId",
          "type": "uint128"
        }
      ],
      "name": "getPatient",
      "outputs": [
        {
          "internalType": "string",
          "name": "",
          "type": "string"
        },
        {
          "internalType": "uint256",
          "name": "",
          "type": "uint256"
        },
        {
          "internalType": "string[]",
          "name": "",
          "type": "string[]"
        }
      ],
      "stateMutability": "view",
      "type": "function",
      "constant": true
    }
  ],
  "bytecode": "0x608060405234801561001057600080fd5b5060008060006101000a8154816fffffffffffffffffffffffffffffffff02191690836fffffffffffffffffffffffffffffffff160217905550611848806100596000396000f3fe608060405234801561001057600080fd5b50600436106100575760003560e01c80631fe02ff51461005c578063749c150c14610078578063757023ea146100945780639fc2ae75146100c6578063a5b7d984146100e2575b600080fd5b61007660048036038101906100719190610ee1565b6100fe565b005b610092600480360381019061008d9190610fd3565b610273565b005b6100ae60048036038101906100a99190611026565b6104a5565b6040516100bd939291906111f7565b60405180910390f35b6100e060048036038101906100db9190610fd3565b6107c0565b005b6100fc60048036038101906100f79190611268565b6109f4565b005b816001151560016000836fffffffffffffffffffffffffffffffff166fffffffffffffffffffffffffffffffff16815260200190815260200160002060040160003373ffffffffffffffffffffffffffffffffffffffff1673ffffffffffffffffffffffffffffffffffffffff16815260200190815260200160002060009054906101000a900460ff161515146101ca576040517f08c379a00000000000000000000000000000000000000000000000000000000081526004016101c190611336565b60405180910390fd5b60016000846fffffffffffffffffffffffffffffffff166fffffffffffffffffffffffffffffffff168152602001908152602001600020600301829080600181540180825580915050600190039060005260206000200160009091909190915090816102369190611562565b507fc18d5b2f5906fbec73c2803b25b20277d6857ea6b5f9121b70f58777562aebe1336040516102669190611643565b60405180910390a1505050565b823373ffffffffffffffffffffffffffffffffffffffff1660016000836fffffffffffffffffffffffffffffffff166fffffffffffffffffffffffffffffffff16815260200190815260200160002060000160009054906101000a900473ffffffffffffffffffffffffffffffffffffffff1673ffffffffffffffffffffffffffffffffffffffff161461033c576040517f08c379a0000000000000000000000000000000000000000000000000000000008152600401610333906116d0565b60405180910390fd5b81156103d6576001806000866fffffffffffffffffffffffffffffffff166fffffffffffffffffffffffffffffffff16815260200190815260200160002060040160008573ffffffffffffffffffffffffffffffffffffffff1673ffffffffffffffffffffffffffffffffffffffff16815260200190815260200160002060006101000a81548160ff021916908315150217905550610466565b6001806000866fffffffffffffffffffffffffffffffff166fffffffffffffffffffffffffffffffff16815260200190815260200160002060050160008573ffffffffffffffffffffffffffffffffffffffff1673ffffffffffffffffffffffffffffffffffffffff16815260200190815260200160002060006101000a81548160ff0219169083151502179055505b7f5346b28fbd1f1ceddc3d51e1172783bb91503660bb06e82f5367b4873d99809f33846040516104979291906116f0565b60405180910390a150505050565b606060006060836001151560016000836fffffffffffffffffffffffffffffffff166fffffffffffffffffffffffffffffffff16815260200190815260200160002060050160003373ffffffffffffffffffffffffffffffffffffffff1673ffffffffffffffffffffffffffffffffffffffff16815260200190815260200160002060009054906101000a900460ff16151514806105cb57506001151560016000836fffffffffffffffffffffffffffffffff166fffffffffffffffffffffffffffffffff16815260200190815260200160002060040160003373ffffffffffffffffffffffffffffffffffffffff1673ffffffffffffffffffffffffffffffffffffffff16815260200190815260200160002060009054906101000a900460ff161515145b61060a576040517f08c379a00000000000000000000000000000000000000000000000000000000081526004016106019061178b565b60405180910390fd5b600060016000876fffffffffffffffffffffffffffffffff166fffffffffffffffffffffffffffffffff16815260200190815260200160002090508060010181600201548260030182805461065e90611385565b80601f016020809104026020016040519081016040528092919081815260200182805461068a90611385565b80156106d75780601f106106ac576101008083540402835291602001916106d7565b820191906000526020600020905b8154815290600101906020018083116106ba57829003601f168201915b5050505050925080805480602002602001604051908101604052809291908181526020016000905b828210156107ab57838290600052602060002001805461071e90611385565b80601f016020809104026020016040519081016040528092919081815260200182805461074a90611385565b80156107975780601f1061076c57610100808354040283529160200191610797565b820191906000526020600020905b81548152906001019060200180831161077a57829003601f168201915b5050505050815260200190600101906106ff565b50505050905094509450945050509193909250565b823373ffffffffffffffffffffffffffffffffffffffff1660016000836fffffffffffffffffffffffffffffffff166fffffffffffffffffffffffffffffffff16815260200190815260200160002060000160009054906101000a900473ffffffffffffffffffffffffffffffffffffffff1673ffffffffffffffffffffffffffffffffffffffff1614610889576040517f08c379a0000000000000000000000000000000000000000000000000000000008152600401610880906116d0565b60405180910390fd5b811561092457600060016000866fffffffffffffffffffffffffffffffff166fffffffffffffffffffffffffffffffff16815260200190815260200160002060040160008573ffffffffffffffffffffffffffffffffffffffff1673ffffffffffffffffffffffffffffffffffffffff16815260200190815260200160002060006101000a81548160ff0219169083151502179055506109b5565b600060016000866fffffffffffffffffffffffffffffffff166fffffffffffffffffffffffffffffffff16815260200190815260200160002060050160008573ffffffffffffffffffffffffffffffffffffffff1673ffffffffffffffffffffffffffffffffffffffff16815260200190815260200160002060006101000a81548160ff0219169083151502179055505b7f34c70d14c0f240ebb55c35bd6cb573eb0b0367da2ebdaa578ca608c8c61ae78b33846040516109e69291906116f0565b60405180910390a150505050565b6000600160008060009054906101000a90046fffffffffffffffffffffffffffffffff166fffffffffffffffffffffffffffffffff166fffffffffffffffffffffffffffffffff1681526020019081526020016000209050338160000160006101000a81548173ffffffffffffffffffffffffffffffffffffffff021916908373ffffffffffffffffffffffffffffffffffffffff16021790555082816001019081610aa09190611562565b50818160020181905550600067ffffffffffffffff811115610ac557610ac4610db6565b5b604051908082528060200260200182016040528015610af857816020015b6060815260200190600190039081610ae35790505b50816003019080519060200190610b10929190610c65565b5060018160040160003373ffffffffffffffffffffffffffffffffffffffff1673ffffffffffffffffffffffffffffffffffffffff16815260200190815260200160002060006101000a81548160ff02191690831515021790555060008160050160003373ffffffffffffffffffffffffffffffffffffffff1673ffffffffffffffffffffffffffffffffffffffff16815260200190815260200160002060006101000a81548160ff02191690831515021790555060008081819054906101000a90046fffffffffffffffffffffffffffffffff1680929190610bf2906117da565b91906101000a8154816fffffffffffffffffffffffffffffffff02191690836fffffffffffffffffffffffffffffffff160217905550507f95da8bbdf889e7243708eb2c182697d9ba22f38d5a182feef34361665d61c15f33604051610c589190611643565b60405180910390a1505050565b828054828255906000526020600020908101928215610cad579160200282015b82811115610cac578251829081610c9c9190611562565b5091602001919060010190610c85565b5b509050610cba9190610cbe565b5090565b5b80821115610cde5760008181610cd59190610ce2565b50600101610cbf565b5090565b508054610cee90611385565b6000825580601f10610d005750610d1f565b601f016020900490600052602060002090810190610d1e9190610d22565b5b50565b5b80821115610d3b576000816000905550600101610d23565b5090565b6000604051905090565b600080fd5b600080fd5b60006fffffffffffffffffffffffffffffffff82169050919050565b610d7881610d53565b8114610d8357600080fd5b50565b600081359050610d9581610d6f565b92915050565b600080fd5b600080fd5b6000601f19601f8301169050919050565b7f4e487b7100000000000000000000000000000000000000000000000000000000600052604160045260246000fd5b610dee82610da5565b810181811067ffffffffffffffff82111715610e0d57610e0c610db6565b5b80604052505050565b6000610e20610d3f565b9050610e2c8282610de5565b919050565b600067ffffffffffffffff821115610e4c57610e4b610db6565b5b610e5582610da5565b9050602081019050919050565b82818337600083830152505050565b6000610e84610e7f84610e31565b610e16565b905082815260208101848484011115610ea057610e9f610da0565b5b610eab848285610e62565b509392505050565b600082601f830112610ec857610ec7610d9b565b5b8135610ed8848260208601610e71565b91505092915050565b60008060408385031215610ef857610ef7610d49565b5b6000610f0685828601610d86565b925050602083013567ffffffffffffffff811115610f2757610f26610d4e565b5b610f3385828601610eb3565b9150509250929050565b600073ffffffffffffffffffffffffffffffffffffffff82169050919050565b6000610f6882610f3d565b9050919050565b610f7881610f5d565b8114610f8357600080fd5b50565b600081359050610f9581610f6f565b92915050565b60008115159050919050565b610fb081610f9b565b8114610fbb57600080fd5b50565b600081359050610fcd81610fa7565b92915050565b600080600060608486031215610fec57610feb610d49565b5b6000610ffa86828701610d86565b935050602061100b86828701610f86565b925050604061101c86828701610fbe565b9150509250925092565b60006020828403121561103c5761103b610d49565b5b600061104a84828501610d86565b91505092915050565b600081519050919050565b600082825260208201905092915050565b60005b8381101561108d578082015181840152602081019050611072565b60008484015250505050565b60006110a482611053565b6110ae818561105e565b93506110be81856020860161106f565b6110c781610da5565b840191505092915050565b6000819050919050565b6110e5816110d2565b82525050565b600081519050919050565b600082825260208201905092915050565b6000819050602082019050919050565b600082825260208201905092915050565b600061113382611053565b61113d8185611117565b935061114d81856020860161106f565b61115681610da5565b840191505092915050565b600061116d8383611128565b905092915050565b6000602082019050919050565b600061118d826110eb565b61119781856110f6565b9350836020820285016111a985611107565b8060005b858110156111e557848403895281516111c68582611161565b94506111d183611175565b925060208a019950506001810190506111ad565b50829750879550505050505092915050565b600060608201905081810360008301526112118186611099565b905061122060208301856110dc565b81810360408301526112328184611182565b9050949350505050565b611245816110d2565b811461125057600080fd5b50565b6000813590506112628161123c565b92915050565b6000806040838503121561127f5761127e610d49565b5b600083013567ffffffffffffffff81111561129d5761129c610d4e565b5b6112a985828601610eb3565b92505060206112ba85828601611253565b9150509250929050565b7f4f6e6c7920616c6c6f77656420646f63746f72732063616e206163636573732060008201527f746869732066756e6374696f6e00000000000000000000000000000000000000602082015250565b6000611320602d8361105e565b915061132b826112c4565b604082019050919050565b6000602082019050818103600083015261134f81611313565b9050919050565b7f4e487b7100000000000000000000000000000000000000000000000000000000600052602260045260246000fd5b6000600282049050600182168061139d57607f821691505b6020821081036113b0576113af611356565b5b50919050565b60008190508160005260206000209050919050565b60006020601f8301049050919050565b600082821b905092915050565b6000600883026114187fffffffffffffffffffffffffffffffffffffffffffffffffffffffffffffffff826113db565b61142286836113db565b95508019841693508086168417925050509392505050565b6000819050919050565b600061145f61145a611455846110d2565b61143a565b6110d2565b9050919050565b6000819050919050565b61147983611444565b61148d61148582611466565b8484546113e8565b825550505050565b600090565b6114a2611495565b6114ad818484611470565b505050565b5b818110156114d1576114c660008261149a565b6001810190506114b3565b5050565b601f821115611516576114e7816113b6565b6114f0846113cb565b810160208510156114ff578190505b61151361150b856113cb565b8301826114b2565b50505b505050565b600082821c905092915050565b60006115396000198460080261151b565b1980831691505092915050565b60006115528383611528565b9150826002028217905092915050565b61156b82611053565b67ffffffffffffffff81111561158457611583610db6565b5b61158e8254611385565b6115998282856114d5565b600060209050601f8311600181146115cc57600084156115ba578287015190505b6115c48582611546565b86555061162c565b601f1984166115da866113b6565b60005b82811015611602578489015182556001820191506020850194506020810190506115dd565b8683101561161f578489015161161b601f891682611528565b8355505b6001600288020188555050505b505050505050565b61163d81610f5d565b82525050565b60006020820190506116586000830184611634565b92915050565b7f4f6e6c792070617469656e742063616e2061636365737320746869732066756e60008201527f6374696f6e000000000000000000000000000000000000000000000000000000602082015250565b60006116ba60258361105e565b91506116c58261165e565b604082019050919050565b600060208201905081810360008301526116e9816116ad565b9050919050565b60006040820190506117056000830185611634565b6117126020830184611634565b9392505050565b7f4f6e6c7920616c6c6f77656420696e737572657273206f7220646f63746f727360008201527f2063616e2061636365737320746869732066756e6374696f6e00000000000000602082015250565b600061177560398361105e565b915061178082611719565b604082019050919050565b600060208201905081810360008301526117a481611768565b9050919050565b7f4e487b7100000000000000000000000000000000000000000000000000000000600052601160045260246000fd5b60006117e582610d53565b91506fffffffffffffffffffffffffffffffff8203611807576118066117ab565b5b60018201905091905056fea26469706673582212207fe714021123339d699e70f8331dff70a5a4e2a13399104390a0264f344d087c64736f6c63430008110033",
  "immutableReferences": {},
  "source": "pragma solidity ^0.8.0;\r\n\r\ncontract HealthcareContract {\r\n    struct Patient {\r\n        address patientAddress;\r\n        string name;\r\n        uint age;\r\n        string[] medicalHistory;\r\n        mapping(address => bool) doctors; // map of doctors who have access\r\n        mapping(address => bool) insurers; // map of insurers who have access\r\n    }\r\n\r\n    uint128 nextId;\r\n    mapping(uint128 => Patient) patients;\r\n\r\n    event PatientCreated(address patient);\r\n    event MedicalRecordAdded(address patient);\r\n    event RecordAccessAssinged(address patient, address entity);\r\n    event RecordAccessRevoked(address patient, address doctor);\r\n\r\n    constructor() {\r\n        nextId = 0;\r\n    }\r\n\r\n    modifier allowedDoctor(uint128 patientId) {\r\n        require(\r\n            patients[patientId].doctors[msg.sender] == true,\r\n            \"Only allowed doctors can access this function\"\r\n        );\r\n        _;\r\n    }\r\n\r\n    modifier allowedInsurer(uint128 patientId) {\r\n        require(\r\n            patients[patientId].insurers[msg.sender] == true,\r\n            \"Only allowed insurers can access this function\"\r\n        );\r\n        _;\r\n    }\r\n\r\n    modifier allowedInsurerOrDoctor(uint128 patientId) {\r\n        require(\r\n            patients[patientId].insurers[msg.sender] == true || patients[patientId].doctors[msg.sender] == true,\r\n            \"Only allowed insurers or doctors can access this function\"\r\n        );\r\n        _;\r\n    }\r\n\r\n    modifier patientOnly(uint128 patientId) {\r\n        require(\r\n            patients[patientId].patientAddress == msg.sender,\r\n            \"Only patient can access this function\"\r\n        );\r\n        _;\r\n    }\r\n\r\n    function addPatient(string memory name, uint age) public {\r\n        Patient storage patient = patients[nextId];\r\n        patient.patientAddress = msg.sender;\r\n        patient.name = name;\r\n        patient.age = age;\r\n        patient.medicalHistory = new string[](0);\r\n        patient.doctors[msg.sender] = true; // automatically grant access to patient\r\n        patient.insurers[msg.sender] = false; // automatically deny access to patient\r\n        nextId++;\r\n        emit PatientCreated(msg.sender);\r\n    }\r\n\r\n    function addMedicalRecord(uint128 patientId, string memory medicalRecord) public allowedDoctor(patientId) {\r\n        patients[patientId].medicalHistory.push(medicalRecord);\r\n        emit MedicalRecordAdded(msg.sender);\r\n    }\r\n\r\n    function grantAccess(uint128 patientId, address entity, bool isDoctor) public patientOnly(patientId) {\r\n        if (isDoctor) {\r\n            patients[patientId].doctors[entity] = true;\r\n        } else {\r\n            patients[patientId].insurers[entity] = true;\r\n        }\r\n        emit RecordAccessAssinged(msg.sender, entity);\r\n    }\r\n\r\n    function revokeAccess(uint128 patientId, address entity, bool isDoctor) public patientOnly(patientId) {\r\n        if (isDoctor) {\r\n            patients[patientId].doctors[entity] = false;\r\n        } else {\r\n            patients[patientId].insurers[entity] = false;\r\n        }\r\n        emit RecordAccessRevoked(msg.sender, entity);\r\n    }\r\n\r\n    function getPatient(uint128 patientId)\r\n        public\r\n        view\r\n        allowedInsurerOrDoctor(patientId)\r\n        returns (string memory, uint, string[] memory)\r\n    {\r\n        Patient storage patient = patients[patientId];\r\n        return (\r\n            patient.name,\r\n            patient.age,\r\n            patient.medicalHistory\r\n        );\r\n    }\r\n}\r\n",
  "sourcePath": "C:\\Users\\nasry\\OneDrive - National University of Singapore\\NUS\\Y3S2\\IS4302\\Project\\blockchain-ehealth-records\\contracts\\HealthcareContract.sol",
  "compiler": {
    "name": "solc",
    "version": "0.8.17+commit.8df45f5f.Emscripten.clang"
  },
  "schemaVersion": "3.4.11",
  "updatedAt": "2023-03-21T14:00:08.893Z",
  "networkType": "ethereum",
  "devdoc": {
    "kind": "dev",
    "methods": {},
    "version": 1
  },
  "userdoc": {
    "kind": "user",
    "methods": {},
    "version": 1
  }
}