{
  "contractName": "HealthRecord",
  "abi": [
    {
      "inputs": [],
      "stateMutability": "nonpayable",
      "type": "constructor"
    },
    {
      "anonymous": false,
      "inputs": [
        {
          "indexed": false,
          "internalType": "uint128",
          "name": "id",
          "type": "uint128"
        }
      ],
      "name": "RecordAccessAssinged",
      "type": "event"
    },
    {
      "anonymous": false,
      "inputs": [
        {
          "indexed": false,
          "internalType": "uint128",
          "name": "id",
          "type": "uint128"
        }
      ],
      "name": "RecordAccessRevoked",
      "type": "event"
    },
    {
      "anonymous": false,
      "inputs": [
        {
          "indexed": false,
          "internalType": "uint128",
          "name": "id",
          "type": "uint128"
        }
      ],
      "name": "RecordCreated",
      "type": "event"
    },
    {
      "anonymous": false,
      "inputs": [
        {
          "indexed": false,
          "internalType": "uint128",
          "name": "id",
          "type": "uint128"
        }
      ],
      "name": "RecordDeleted",
      "type": "event"
    },
    {
      "anonymous": false,
      "inputs": [
        {
          "indexed": false,
          "internalType": "uint128",
          "name": "id",
          "type": "uint128"
        },
        {
          "indexed": false,
          "internalType": "uint128",
          "name": "newKey",
          "type": "uint128"
        }
      ],
      "name": "RecordEditRequested",
      "type": "event"
    },
    {
      "anonymous": false,
      "inputs": [
        {
          "indexed": false,
          "internalType": "uint128",
          "name": "id",
          "type": "uint128"
        }
      ],
      "name": "RecordEdited",
      "type": "event"
    },
    {
      "inputs": [],
      "name": "createRecord",
      "outputs": [],
      "stateMutability": "nonpayable",
      "type": "function"
    },
    {
      "inputs": [
        {
          "internalType": "uint128",
          "name": "id",
          "type": "uint128"
        }
      ],
      "name": "deleteRecord",
      "outputs": [],
      "stateMutability": "nonpayable",
      "type": "function"
    },
    {
      "inputs": [
        {
          "internalType": "uint128",
          "name": "id",
          "type": "uint128"
        },
        {
          "internalType": "address",
          "name": "assignee",
          "type": "address"
        },
        {
          "internalType": "enum HealthRecord.AccessRight",
          "name": "accessRight",
          "type": "uint8"
        }
      ],
      "name": "assignAccess",
      "outputs": [],
      "stateMutability": "nonpayable",
      "type": "function"
    },
    {
      "inputs": [
        {
          "internalType": "uint128",
          "name": "id",
          "type": "uint128"
        },
        {
          "internalType": "address",
          "name": "assignee",
          "type": "address"
        }
      ],
      "name": "revokeAccess",
      "outputs": [],
      "stateMutability": "nonpayable",
      "type": "function"
    }
  ],
  "bytecode": "0x608060405234801561001057600080fd5b506000600160006101000a8154816fffffffffffffffffffffffffffffffff02191690836fffffffffffffffffffffffffffffffff1602179055506108158061005a6000396000f3fe608060405234801561001057600080fd5b506004361061004c5760003560e01c8063642f722c14610051578063d59dc5b21461005b578063e21ea11214610077578063f9d7fbcb14610093575b600080fd5b6100596100af565b005b61007560048036038101906100709190610597565b610225565b005b610091600480360381019061008c91906105fc565b610312565b005b6100ad60048036038101906100a8919061064f565b610400565b005b6000806000600160009054906101000a90046fffffffffffffffffffffffffffffffff166fffffffffffffffffffffffffffffffff166fffffffffffffffffffffffffffffffff16815260200190815260200160002060003373ffffffffffffffffffffffffffffffffffffffff1673ffffffffffffffffffffffffffffffffffffffff16815260200190815260200160002060006101000a81548160ff021916908360028111156101645761016361067c565b5b02179055506001600081819054906101000a90046fffffffffffffffffffffffffffffffff1680929190610197906106da565b91906101000a8154816fffffffffffffffffffffffffffffffff02191690836fffffffffffffffffffffffffffffffff160217905550507fb6d07b132877ed9e567d31c128ec032e92ee2d8626f2c2d8adbe64166abda378600160009054906101000a90046fffffffffffffffffffffffffffffffff1660405161021b9190610721565b60405180910390a1565b816000600281111561023a5761023961067c565b5b600080836fffffffffffffffffffffffffffffffff166fffffffffffffffffffffffffffffffff16815260200190815260200160002060003373ffffffffffffffffffffffffffffffffffffffff1673ffffffffffffffffffffffffffffffffffffffff16815260200190815260200160002060009054906101000a900460ff1660028111156102cd576102cc61067c565b5b1461030d576040517f08c379a0000000000000000000000000000000000000000000000000000000008152600401610304906107bf565b60405180910390fd5b505050565b82600060028111156103275761032661067c565b5b600080836fffffffffffffffffffffffffffffffff166fffffffffffffffffffffffffffffffff16815260200190815260200160002060003373ffffffffffffffffffffffffffffffffffffffff1673ffffffffffffffffffffffffffffffffffffffff16815260200190815260200160002060009054906101000a900460ff1660028111156103ba576103b961067c565b5b146103fa576040517f08c379a00000000000000000000000000000000000000000000000000000000081526004016103f1906107bf565b60405180910390fd5b50505050565b80600060028111156104155761041461067c565b5b600080836fffffffffffffffffffffffffffffffff166fffffffffffffffffffffffffffffffff16815260200190815260200160002060003373ffffffffffffffffffffffffffffffffffffffff1673ffffffffffffffffffffffffffffffffffffffff16815260200190815260200160002060009054906101000a900460ff1660028111156104a8576104a761067c565b5b146104e8576040517f08c379a00000000000000000000000000000000000000000000000000000000081526004016104df906107bf565b60405180910390fd5b5050565b600080fd5b60006fffffffffffffffffffffffffffffffff82169050919050565b610516816104f1565b811461052157600080fd5b50565b6000813590506105338161050d565b92915050565b600073ffffffffffffffffffffffffffffffffffffffff82169050919050565b600061056482610539565b9050919050565b61057481610559565b811461057f57600080fd5b50565b6000813590506105918161056b565b92915050565b600080604083850312156105ae576105ad6104ec565b5b60006105bc85828601610524565b92505060206105cd85828601610582565b9150509250929050565b600381106105e457600080fd5b50565b6000813590506105f6816105d7565b92915050565b600080600060608486031215610615576106146104ec565b5b600061062386828701610524565b935050602061063486828701610582565b9250506040610645868287016105e7565b9150509250925092565b600060208284031215610665576106646104ec565b5b600061067384828501610524565b91505092915050565b7f4e487b7100000000000000000000000000000000000000000000000000000000600052602160045260246000fd5b7f4e487b7100000000000000000000000000000000000000000000000000000000600052601160045260246000fd5b60006106e5826104f1565b91506fffffffffffffffffffffffffffffffff8203610707576107066106ab565b5b600182019050919050565b61071b816104f1565b82525050565b60006020820190506107366000830184610712565b92915050565b600082825260208201905092915050565b7f4f6e6c79206f776e657220697320616c6c6f77656420666f722074686973206f60008201527f7065726174696f6e000000000000000000000000000000000000000000000000602082015250565b60006107a960288361073c565b91506107b48261074d565b604082019050919050565b600060208201905081810360008301526107d88161079c565b905091905056fea2646970667358221220342906649b03af172de6d59eb211c22f7a9ca7835d0954c2c8252964f23bd34164736f6c63430008110033",
  "immutableReferences": {},
  "source": "pragma solidity ^0.8.0;\r\n\r\ncontract HealthRecord {\r\n    enum AccessRight {\r\n        OWNER,\r\n        VIEWER,\r\n        EDITOR\r\n    }\r\n\r\n    // ignore this shit\r\n    // This map an id to a hash on the database\r\n    // mapping(uint128 => uint128) identifier;\r\n\r\n    // there could be multiple types of healthRecords (create a struct for each?)\r\n    struct healthRecord {\r\n        address createdBy;\r\n        address owner;\r\n        string recordDetails;\r\n    }\r\n\r\n    struct patient {\r\n        string name;\r\n        uint age;\r\n        address[] doctorAccessList;\r\n        uint[] diagnosis;\r\n        string record;\r\n    }\r\n\r\n    struct doctor {\r\n        string name;\r\n        address[] patientAccessList;\r\n    }\r\n\r\n    struct insurer {\r\n        string name;\r\n        uint count_of_patient;\r\n        address[] PatientWhoClaimed;\r\n        address[] DocName;\r\n        uint[] diagnosis;\r\n    }\r\n\r\n    // access[id][person] = AccessRight.OWNER means 'person' owns the record with id='id'\r\n    mapping(uint128 => mapping(address => AccessRight)) access;\r\n    uint128 nextId;\r\n\r\n    event RecordCreated(uint128 id);\r\n    event RecordEditRequested(uint128 id, uint128 newKey);\r\n    event RecordEdited(uint128 id);\r\n    event RecordDeleted(uint128 id);\r\n    event RecordAccessAssinged(uint128 id);\r\n    event RecordAccessRevoked(uint128 id);\r\n\r\n    constructor() {\r\n        nextId = 0;\r\n    }\r\n\r\n    modifier ownerOnly(uint128 id) {\r\n        require(\r\n            access[id][msg.sender] == AccessRight.OWNER,\r\n            \"Only owner is allowed for this operation\"\r\n        );\r\n        _;\r\n    }\r\n\r\n    modifier viewerOnly(uint128 id) {\r\n        require(\r\n            access[id][msg.sender] == AccessRight.VIEWER,\r\n            \"Only viewer is allowed for this operation\"\r\n        );\r\n        _;\r\n    }\r\n\r\n    modifier editorOnly(uint128 id) {\r\n        require(\r\n            access[id][msg.sender] == AccessRight.EDITOR,\r\n            \"Only editor is allowed for this operation\"\r\n        );\r\n        _;\r\n    }\r\n\r\n    // someone want to create a record, assign a new id to him and make him owner\r\n    function createRecord() public {\r\n        access[nextId][msg.sender] = AccessRight.OWNER;\r\n        nextId++;\r\n        emit RecordCreated(nextId);\r\n    }\r\n\r\n    function deleteRecord(uint128 id) public ownerOnly(id) {}\r\n\r\n    function assignAccess(\r\n        uint128 id,\r\n        address assignee,\r\n        AccessRight accessRight\r\n    ) public ownerOnly(id) {}\r\n\r\n    function revokeAccess(uint128 id, address assignee) public ownerOnly(id) {}\r\n}\r\n",
  "sourcePath": "C:\\Users\\nasry\\OneDrive - National University of Singapore\\NUS\\Y3S2\\IS4302\\Project\\blockchain-ehealth-records\\contracts\\HealthRecord.sol",
  "compiler": {
    "name": "solc",
    "version": "0.8.17+commit.8df45f5f.Emscripten.clang"
  },
  "schemaVersion": "3.4.11",
  "updatedAt": "2023-03-21T14:00:02.106Z",
  "devdoc": {
    "kind": "dev",
    "methods": {},
    "version": 1
  },
  "userdoc": {
    "kind": "user",
    "methods": {},
    "version": 1
  }
}