{
  "contractName": "HealthcareContract",
  "abi": [
    {
      "inputs": [],
      "stateMutability": "nonpayable",
      "type": "constructor"
    },
    {
      "anonymous": false,
      "inputs": [
        {
          "indexed": false,
          "internalType": "address",
          "name": "patient",
          "type": "address"
        }
      ],
      "name": "MedicalRecordAdded",
      "type": "event"
    },
    {
      "anonymous": false,
      "inputs": [
        {
          "indexed": false,
          "internalType": "address",
          "name": "patient",
          "type": "address"
        }
      ],
      "name": "PatientCreated",
      "type": "event"
    },
    {
      "anonymous": false,
      "inputs": [
        {
          "indexed": false,
          "internalType": "address",
          "name": "patient",
          "type": "address"
        },
        {
          "indexed": false,
          "internalType": "address",
          "name": "entity",
          "type": "address"
        }
      ],
      "name": "RecordAccessAssigned",
      "type": "event"
    },
    {
      "anonymous": false,
      "inputs": [
        {
          "indexed": false,
          "internalType": "address",
          "name": "patient",
          "type": "address"
        },
        {
          "indexed": false,
          "internalType": "address",
          "name": "doctor",
          "type": "address"
        }
      ],
      "name": "RecordAccessRevoked",
      "type": "event"
    },
    {
      "inputs": [
        {
          "internalType": "string",
          "name": "name",
          "type": "string"
        },
        {
          "internalType": "uint256",
          "name": "age",
          "type": "uint256"
        }
      ],
      "name": "addPatient",
      "outputs": [],
      "stateMutability": "nonpayable",
      "type": "function"
    },
    {
      "inputs": [
        {
          "internalType": "uint128",
          "name": "patientId",
          "type": "uint128"
        },
        {
          "internalType": "string",
          "name": "medicalRecord",
          "type": "string"
        }
      ],
      "name": "addMedicalRecord",
      "outputs": [],
      "stateMutability": "nonpayable",
      "type": "function"
    },
    {
      "inputs": [
        {
          "internalType": "uint128",
          "name": "patientId",
          "type": "uint128"
        },
        {
          "internalType": "address",
          "name": "entity",
          "type": "address"
        },
        {
          "internalType": "bool",
          "name": "isDoctor",
          "type": "bool"
        }
      ],
      "name": "grantAccess",
      "outputs": [],
      "stateMutability": "nonpayable",
      "type": "function"
    },
    {
      "inputs": [
        {
          "internalType": "uint128",
          "name": "patientId",
          "type": "uint128"
        },
        {
          "internalType": "address",
          "name": "entity",
          "type": "address"
        },
        {
          "internalType": "bool",
          "name": "isDoctor",
          "type": "bool"
        }
      ],
      "name": "revokeAccess",
      "outputs": [],
      "stateMutability": "nonpayable",
      "type": "function"
    },
    {
      "inputs": [
        {
          "internalType": "uint128",
          "name": "patientId",
          "type": "uint128"
        }
      ],
      "name": "getPatient",
      "outputs": [
        {
          "internalType": "string",
          "name": "",
          "type": "string"
        },
        {
          "internalType": "uint256",
          "name": "",
          "type": "uint256"
        },
        {
          "internalType": "string[]",
          "name": "",
          "type": "string[]"
        }
      ],
      "stateMutability": "view",
      "type": "function",
      "constant": true
    },
    {
      "inputs": [
        {
          "internalType": "uint128",
          "name": "patientId",
          "type": "uint128"
        },
        {
          "internalType": "address",
          "name": "doctor",
          "type": "address"
        }
      ],
      "name": "checkAllowedDoctor",
      "outputs": [
        {
          "internalType": "bool",
          "name": "",
          "type": "bool"
        }
      ],
      "stateMutability": "view",
      "type": "function",
      "constant": true
    }
  ],
  "bytecode": "0x608060405234801561001057600080fd5b5060008060006101000a8154816fffffffffffffffffffffffffffffffff02191690836fffffffffffffffffffffffffffffffff16021790555061197c806100596000396000f3fe608060405234801561001057600080fd5b50600436106100625760003560e01c80631fe02ff51461006757806365f1b09614610083578063749c150c146100b3578063757023ea146100cf5780639fc2ae7514610101578063a5b7d9841461011d575b600080fd5b610081600480360381019061007c9190610fab565b610139565b005b61009d60048036038101906100989190611065565b6102ae565b6040516100aa91906110c0565b60405180910390f35b6100cd60048036038101906100c89190611107565b61033d565b005b6100e960048036038101906100e4919061115a565b61056f565b6040516100f89392919061132b565b60405180910390f35b61011b60048036038101906101169190611107565b61088a565b005b6101376004803603810190610132919061139c565b610abe565b005b816001151560016000836fffffffffffffffffffffffffffffffff166fffffffffffffffffffffffffffffffff16815260200190815260200160002060040160003373ffffffffffffffffffffffffffffffffffffffff1673ffffffffffffffffffffffffffffffffffffffff16815260200190815260200160002060009054906101000a900460ff16151514610205576040517f08c379a00000000000000000000000000000000000000000000000000000000081526004016101fc9061146a565b60405180910390fd5b60016000846fffffffffffffffffffffffffffffffff166fffffffffffffffffffffffffffffffff168152602001908152602001600020600301829080600181540180825580915050600190039060005260206000200160009091909190915090816102719190611696565b507fc18d5b2f5906fbec73c2803b25b20277d6857ea6b5f9121b70f58777562aebe1336040516102a19190611777565b60405180910390a1505050565b600060016000846fffffffffffffffffffffffffffffffff166fffffffffffffffffffffffffffffffff16815260200190815260200160002060040160008373ffffffffffffffffffffffffffffffffffffffff1673ffffffffffffffffffffffffffffffffffffffff16815260200190815260200160002060009054906101000a900460ff16905092915050565b823373ffffffffffffffffffffffffffffffffffffffff1660016000836fffffffffffffffffffffffffffffffff166fffffffffffffffffffffffffffffffff16815260200190815260200160002060000160009054906101000a900473ffffffffffffffffffffffffffffffffffffffff1673ffffffffffffffffffffffffffffffffffffffff1614610406576040517f08c379a00000000000000000000000000000000000000000000000000000000081526004016103fd90611804565b60405180910390fd5b81156104a0576001806000866fffffffffffffffffffffffffffffffff166fffffffffffffffffffffffffffffffff16815260200190815260200160002060040160008573ffffffffffffffffffffffffffffffffffffffff1673ffffffffffffffffffffffffffffffffffffffff16815260200190815260200160002060006101000a81548160ff021916908315150217905550610530565b6001806000866fffffffffffffffffffffffffffffffff166fffffffffffffffffffffffffffffffff16815260200190815260200160002060050160008573ffffffffffffffffffffffffffffffffffffffff1673ffffffffffffffffffffffffffffffffffffffff16815260200190815260200160002060006101000a81548160ff0219169083151502179055505b7f5bf6627a09e88f11370467cf1422c2c416c48de6ab1f240da887a267f1d745f83384604051610561929190611824565b60405180910390a150505050565b606060006060836001151560016000836fffffffffffffffffffffffffffffffff166fffffffffffffffffffffffffffffffff16815260200190815260200160002060050160003373ffffffffffffffffffffffffffffffffffffffff1673ffffffffffffffffffffffffffffffffffffffff16815260200190815260200160002060009054906101000a900460ff161515148061069557506001151560016000836fffffffffffffffffffffffffffffffff166fffffffffffffffffffffffffffffffff16815260200190815260200160002060040160003373ffffffffffffffffffffffffffffffffffffffff1673ffffffffffffffffffffffffffffffffffffffff16815260200190815260200160002060009054906101000a900460ff161515145b6106d4576040517f08c379a00000000000000000000000000000000000000000000000000000000081526004016106cb906118bf565b60405180910390fd5b600060016000876fffffffffffffffffffffffffffffffff166fffffffffffffffffffffffffffffffff168152602001908152602001600020905080600101816002015482600301828054610728906114b9565b80601f0160208091040260200160405190810160405280929190818152602001828054610754906114b9565b80156107a15780601f10610776576101008083540402835291602001916107a1565b820191906000526020600020905b81548152906001019060200180831161078457829003601f168201915b5050505050925080805480602002602001604051908101604052809291908181526020016000905b828210156108755783829060005260206000200180546107e8906114b9565b80601f0160208091040260200160405190810160405280929190818152602001828054610814906114b9565b80156108615780601f1061083657610100808354040283529160200191610861565b820191906000526020600020905b81548152906001019060200180831161084457829003601f168201915b5050505050815260200190600101906107c9565b50505050905094509450945050509193909250565b823373ffffffffffffffffffffffffffffffffffffffff1660016000836fffffffffffffffffffffffffffffffff166fffffffffffffffffffffffffffffffff16815260200190815260200160002060000160009054906101000a900473ffffffffffffffffffffffffffffffffffffffff1673ffffffffffffffffffffffffffffffffffffffff1614610953576040517f08c379a000000000000000000000000000000000000000000000000000000000815260040161094a90611804565b60405180910390fd5b81156109ee57600060016000866fffffffffffffffffffffffffffffffff166fffffffffffffffffffffffffffffffff16815260200190815260200160002060040160008573ffffffffffffffffffffffffffffffffffffffff1673ffffffffffffffffffffffffffffffffffffffff16815260200190815260200160002060006101000a81548160ff021916908315150217905550610a7f565b600060016000866fffffffffffffffffffffffffffffffff166fffffffffffffffffffffffffffffffff16815260200190815260200160002060050160008573ffffffffffffffffffffffffffffffffffffffff1673ffffffffffffffffffffffffffffffffffffffff16815260200190815260200160002060006101000a81548160ff0219169083151502179055505b7f34c70d14c0f240ebb55c35bd6cb573eb0b0367da2ebdaa578ca608c8c61ae78b3384604051610ab0929190611824565b60405180910390a150505050565b6000600160008060009054906101000a90046fffffffffffffffffffffffffffffffff166fffffffffffffffffffffffffffffffff166fffffffffffffffffffffffffffffffff1681526020019081526020016000209050338160000160006101000a81548173ffffffffffffffffffffffffffffffffffffffff021916908373ffffffffffffffffffffffffffffffffffffffff16021790555082816001019081610b6a9190611696565b50818160020181905550600067ffffffffffffffff811115610b8f57610b8e610e80565b5b604051908082528060200260200182016040528015610bc257816020015b6060815260200190600190039081610bad5790505b50816003019080519060200190610bda929190610d2f565b5060018160040160003373ffffffffffffffffffffffffffffffffffffffff1673ffffffffffffffffffffffffffffffffffffffff16815260200190815260200160002060006101000a81548160ff02191690831515021790555060008160050160003373ffffffffffffffffffffffffffffffffffffffff1673ffffffffffffffffffffffffffffffffffffffff16815260200190815260200160002060006101000a81548160ff02191690831515021790555060008081819054906101000a90046fffffffffffffffffffffffffffffffff1680929190610cbc9061190e565b91906101000a8154816fffffffffffffffffffffffffffffffff02191690836fffffffffffffffffffffffffffffffff160217905550507f95da8bbdf889e7243708eb2c182697d9ba22f38d5a182feef34361665d61c15f33604051610d229190611777565b60405180910390a1505050565b828054828255906000526020600020908101928215610d77579160200282015b82811115610d76578251829081610d669190611696565b5091602001919060010190610d4f565b5b509050610d849190610d88565b5090565b5b80821115610da85760008181610d9f9190610dac565b50600101610d89565b5090565b508054610db8906114b9565b6000825580601f10610dca5750610de9565b601f016020900490600052602060002090810190610de89190610dec565b5b50565b5b80821115610e05576000816000905550600101610ded565b5090565b6000604051905090565b600080fd5b600080fd5b60006fffffffffffffffffffffffffffffffff82169050919050565b610e4281610e1d565b8114610e4d57600080fd5b50565b600081359050610e5f81610e39565b92915050565b600080fd5b600080fd5b6000601f19601f8301169050919050565b7f4e487b7100000000000000000000000000000000000000000000000000000000600052604160045260246000fd5b610eb882610e6f565b810181811067ffffffffffffffff82111715610ed757610ed6610e80565b5b80604052505050565b6000610eea610e09565b9050610ef68282610eaf565b919050565b600067ffffffffffffffff821115610f1657610f15610e80565b5b610f1f82610e6f565b9050602081019050919050565b82818337600083830152505050565b6000610f4e610f4984610efb565b610ee0565b905082815260208101848484011115610f6a57610f69610e6a565b5b610f75848285610f2c565b509392505050565b600082601f830112610f9257610f91610e65565b5b8135610fa2848260208601610f3b565b91505092915050565b60008060408385031215610fc257610fc1610e13565b5b6000610fd085828601610e50565b925050602083013567ffffffffffffffff811115610ff157610ff0610e18565b5b610ffd85828601610f7d565b9150509250929050565b600073ffffffffffffffffffffffffffffffffffffffff82169050919050565b600061103282611007565b9050919050565b61104281611027565b811461104d57600080fd5b50565b60008135905061105f81611039565b92915050565b6000806040838503121561107c5761107b610e13565b5b600061108a85828601610e50565b925050602061109b85828601611050565b9150509250929050565b60008115159050919050565b6110ba816110a5565b82525050565b60006020820190506110d560008301846110b1565b92915050565b6110e4816110a5565b81146110ef57600080fd5b50565b600081359050611101816110db565b92915050565b6000806000606084860312156111205761111f610e13565b5b600061112e86828701610e50565b935050602061113f86828701611050565b9250506040611150868287016110f2565b9150509250925092565b6000602082840312156111705761116f610e13565b5b600061117e84828501610e50565b91505092915050565b600081519050919050565b600082825260208201905092915050565b60005b838110156111c15780820151818401526020810190506111a6565b60008484015250505050565b60006111d882611187565b6111e28185611192565b93506111f28185602086016111a3565b6111fb81610e6f565b840191505092915050565b6000819050919050565b61121981611206565b82525050565b600081519050919050565b600082825260208201905092915050565b6000819050602082019050919050565b600082825260208201905092915050565b600061126782611187565b611271818561124b565b93506112818185602086016111a3565b61128a81610e6f565b840191505092915050565b60006112a1838361125c565b905092915050565b6000602082019050919050565b60006112c18261121f565b6112cb818561122a565b9350836020820285016112dd8561123b565b8060005b8581101561131957848403895281516112fa8582611295565b9450611305836112a9565b925060208a019950506001810190506112e1565b50829750879550505050505092915050565b6000606082019050818103600083015261134581866111cd565b90506113546020830185611210565b818103604083015261136681846112b6565b9050949350505050565b61137981611206565b811461138457600080fd5b50565b60008135905061139681611370565b92915050565b600080604083850312156113b3576113b2610e13565b5b600083013567ffffffffffffffff8111156113d1576113d0610e18565b5b6113dd85828601610f7d565b92505060206113ee85828601611387565b9150509250929050565b7f4f6e6c7920616c6c6f77656420646f63746f72732063616e206163636573732060008201527f746869732066756e6374696f6e00000000000000000000000000000000000000602082015250565b6000611454602d83611192565b915061145f826113f8565b604082019050919050565b6000602082019050818103600083015261148381611447565b9050919050565b7f4e487b7100000000000000000000000000000000000000000000000000000000600052602260045260246000fd5b600060028204905060018216806114d157607f821691505b6020821081036114e4576114e361148a565b5b50919050565b60008190508160005260206000209050919050565b60006020601f8301049050919050565b600082821b905092915050565b60006008830261154c7fffffffffffffffffffffffffffffffffffffffffffffffffffffffffffffffff8261150f565b611556868361150f565b95508019841693508086168417925050509392505050565b6000819050919050565b600061159361158e61158984611206565b61156e565b611206565b9050919050565b6000819050919050565b6115ad83611578565b6115c16115b98261159a565b84845461151c565b825550505050565b600090565b6115d66115c9565b6115e18184846115a4565b505050565b5b81811015611605576115fa6000826115ce565b6001810190506115e7565b5050565b601f82111561164a5761161b816114ea565b611624846114ff565b81016020851015611633578190505b61164761163f856114ff565b8301826115e6565b50505b505050565b600082821c905092915050565b600061166d6000198460080261164f565b1980831691505092915050565b6000611686838361165c565b9150826002028217905092915050565b61169f82611187565b67ffffffffffffffff8111156116b8576116b7610e80565b5b6116c282546114b9565b6116cd828285611609565b600060209050601f83116001811461170057600084156116ee578287015190505b6116f8858261167a565b865550611760565b601f19841661170e866114ea565b60005b8281101561173657848901518255600182019150602085019450602081019050611711565b86831015611753578489015161174f601f89168261165c565b8355505b6001600288020188555050505b505050505050565b61177181611027565b82525050565b600060208201905061178c6000830184611768565b92915050565b7f4f6e6c792070617469656e742063616e2061636365737320746869732066756e60008201527f6374696f6e000000000000000000000000000000000000000000000000000000602082015250565b60006117ee602583611192565b91506117f982611792565b604082019050919050565b6000602082019050818103600083015261181d816117e1565b9050919050565b60006040820190506118396000830185611768565b6118466020830184611768565b9392505050565b7f4f6e6c7920616c6c6f77656420696e737572657273206f7220646f63746f727360008201527f2063616e2061636365737320746869732066756e6374696f6e00000000000000602082015250565b60006118a9603983611192565b91506118b48261184d565b604082019050919050565b600060208201905081810360008301526118d88161189c565b9050919050565b7f4e487b7100000000000000000000000000000000000000000000000000000000600052601160045260246000fd5b600061191982610e1d565b91506fffffffffffffffffffffffffffffffff820361193b5761193a6118df565b5b60018201905091905056fea264697066735822122035962faed13103b1d3e77fe359b9ba0fc6cb89254cd20f5c35deb1a80238d9d164736f6c63430008110033",
  "immutableReferences": {},
  "source": "pragma solidity ^0.8.0;\n\ncontract HealthcareContract {\n    struct Patient {\n        address patientAddress;\n        string name;\n        uint age;\n        string[] medicalHistory;\n        mapping(address => bool) doctors; // map of doctors who have access\n        mapping(address => bool) insurers; // map of insurers who have access\n    }\n\n    uint128 nextId;\n    mapping(uint128 => Patient) patients;\n\n    event PatientCreated(address patient);\n    event MedicalRecordAdded(address patient);\n    event RecordAccessAssigned(address patient, address entity);\n    event RecordAccessRevoked(address patient, address doctor);\n\n    constructor() {\n        nextId = 0;\n    }\n\n    modifier allowedDoctor(uint128 patientId) {\n        require(\n            patients[patientId].doctors[msg.sender] == true,\n            \"Only allowed doctors can access this function\"\n        );\n        _;\n    }\n\n    modifier allowedInsurer(uint128 patientId) {\n        require(\n            patients[patientId].insurers[msg.sender] == true,\n            \"Only allowed insurers can access this function\"\n        );\n        _;\n    }\n\n    modifier allowedInsurerOrDoctor(uint128 patientId) {\n        require(\n            patients[patientId].insurers[msg.sender] == true || patients[patientId].doctors[msg.sender] == true,\n            \"Only allowed insurers or doctors can access this function\"\n        );\n        _;\n    }\n\n    modifier patientOnly(uint128 patientId) {\n        require(\n            patients[patientId].patientAddress == msg.sender,\n            \"Only patient can access this function\"\n        );\n        _;\n    }\n\n    function addPatient(string memory name, uint age) public {\n        Patient storage patient = patients[nextId];\n        patient.patientAddress = msg.sender;\n        patient.name = name;\n        patient.age = age;\n        patient.medicalHistory = new string[](0);\n        patient.doctors[msg.sender] = true; // automatically grant access to patient\n        patient.insurers[msg.sender] = false; // automatically deny access to patient\n        nextId++;\n        emit PatientCreated(msg.sender);\n    }\n\n    function addMedicalRecord(uint128 patientId, string memory medicalRecord) public allowedDoctor(patientId) {\n        patients[patientId].medicalHistory.push(medicalRecord);\n        emit MedicalRecordAdded(msg.sender);\n    }\n\n    function grantAccess(uint128 patientId, address entity, bool isDoctor) public patientOnly(patientId) {\n        if (isDoctor) {\n            patients[patientId].doctors[entity] = true;\n        } else {\n            patients[patientId].insurers[entity] = true;\n        }\n        emit RecordAccessAssigned(msg.sender, entity);\n    }\n\n    function revokeAccess(uint128 patientId, address entity, bool isDoctor) public patientOnly(patientId) {\n        if (isDoctor) {\n            patients[patientId].doctors[entity] = false;\n        } else {\n            patients[patientId].insurers[entity] = false;\n        }\n        emit RecordAccessRevoked(msg.sender, entity);\n    }\n\n    function getPatient(uint128 patientId)\n        public\n        view\n        allowedInsurerOrDoctor(patientId)\n        returns (string memory, uint, string[] memory)\n    {\n        Patient storage patient = patients[patientId];\n        return (\n            patient.name,\n            patient.age,\n            patient.medicalHistory\n        );\n    }\n\n    function checkAllowedDoctor(uint128 patientId, address doctor) public view returns (bool) {\n        return patients[patientId].doctors[doctor];\n    }\n}\n",
  "sourcePath": "/home/hedgehog/apps/study/blockchains/blockchain-ehealth-records/contracts/HealthcareContract.sol",
  "compiler": {
    "name": "solc",
    "version": "0.8.17+commit.8df45f5f.Emscripten.clang"
  },
  "schemaVersion": "3.4.11",
  "updatedAt": "2023-03-24T15:08:12.282Z",
  "networkType": "ethereum",
  "devdoc": {
    "kind": "dev",
    "methods": {},
    "version": 1
  },
  "userdoc": {
    "kind": "user",
    "methods": {},
    "version": 1
  }
}