{
  "contractName": "HealthRecord",
  "abi": [
    {
      "anonymous": false,
      "inputs": [
        {
          "indexed": false,
          "internalType": "address",
          "name": "patient",
          "type": "address"
        }
      ],
      "name": "PatientProfileCreated",
      "type": "event"
    },
    {
      "anonymous": false,
      "inputs": [
        {
          "indexed": false,
          "internalType": "address",
          "name": "patient",
          "type": "address"
        }
      ],
      "name": "PatientProfileDeleted",
      "type": "event"
    },
    {
      "anonymous": false,
      "inputs": [
        {
          "indexed": false,
          "internalType": "address",
          "name": "patien",
          "type": "address"
        },
        {
          "indexed": false,
          "internalType": "address",
          "name": "doctor",
          "type": "address"
        }
      ],
      "name": "PatientProfileDoctorAssigned",
      "type": "event"
    },
    {
      "anonymous": false,
      "inputs": [
        {
          "indexed": false,
          "internalType": "address",
          "name": "patien",
          "type": "address"
        },
        {
          "indexed": false,
          "internalType": "address",
          "name": "insurer",
          "type": "address"
        }
      ],
      "name": "PatientProfileInsurerAssigned",
      "type": "event"
    },
    {
      "anonymous": false,
      "inputs": [
        {
          "indexed": false,
          "internalType": "address",
          "name": "patient",
          "type": "address"
        },
        {
          "indexed": false,
          "internalType": "address",
          "name": "doctor",
          "type": "address"
        }
      ],
      "name": "PatientProfileUpdatedByDoctor",
      "type": "event"
    },
    {
      "anonymous": false,
      "inputs": [
        {
          "indexed": false,
          "internalType": "address",
          "name": "patient",
          "type": "address"
        }
      ],
      "name": "PatientProfileUpdatedByOwner",
      "type": "event"
    },
    {
      "inputs": [
        {
          "internalType": "address",
          "name": "patientAddress",
          "type": "address"
        }
      ],
      "name": "readProfile",
      "outputs": [
        {
          "internalType": "string[]",
          "name": "",
          "type": "string[]"
        }
      ],
      "stateMutability": "view",
      "type": "function"
    },
    {
      "inputs": [
        {
          "internalType": "address",
          "name": "patientAddress",
          "type": "address"
        },
        {
          "internalType": "string",
          "name": "newRecord",
          "type": "string"
        }
      ],
      "name": "updateProfile",
      "outputs": [],
      "stateMutability": "nonpayable",
      "type": "function"
    }
  ],
  "bytecode": "0x608060405234801561001057600080fd5b50610be4806100206000396000f3fe608060405234801561001057600080fd5b50600436106100365760003560e01c80633199ac021461003b5780634adcbaa314610057575b600080fd5b61005560048036038101906100509190610558565b610087565b005b610071600480360381019061006c91906105b8565b610212565b60405161007e9190610737565b60405180910390f35b8260008060008373ffffffffffffffffffffffffffffffffffffffff1673ffffffffffffffffffffffffffffffffffffffff16815260200190815260200160002090503373ffffffffffffffffffffffffffffffffffffffff168273ffffffffffffffffffffffffffffffffffffffff16148061014f57508060020160003373ffffffffffffffffffffffffffffffffffffffff1673ffffffffffffffffffffffffffffffffffffffff16815260200190815260200160002060009054906101000a900460ff165b61018e576040517f08c379a0000000000000000000000000000000000000000000000000000000008152600401610185906107dc565b60405180910390fd5b6000808673ffffffffffffffffffffffffffffffffffffffff1673ffffffffffffffffffffffffffffffffffffffff16815260200190815260200160002060010184849091806001815401808255809150506001900390600052602060002001600090919290919290919290919250918261020a929190610a4c565b505050505050565b60608160008060008373ffffffffffffffffffffffffffffffffffffffff1673ffffffffffffffffffffffffffffffffffffffff16815260200190815260200160002090503373ffffffffffffffffffffffffffffffffffffffff168273ffffffffffffffffffffffffffffffffffffffff1614806102dc57508060020160003373ffffffffffffffffffffffffffffffffffffffff1673ffffffffffffffffffffffffffffffffffffffff16815260200190815260200160002060009054906101000a900460ff165b8061033257508060040160003373ffffffffffffffffffffffffffffffffffffffff1673ffffffffffffffffffffffffffffffffffffffff16815260200190815260200160002060009054906101000a900460ff165b610371576040517f08c379a000000000000000000000000000000000000000000000000000000000815260040161036890610b8e565b60405180910390fd5b6000808573ffffffffffffffffffffffffffffffffffffffff1673ffffffffffffffffffffffffffffffffffffffff168152602001908152602001600020600101805480602002602001604051908101604052809291908181526020016000905b8282101561047e5783829060005260206000200180546103f190610865565b80601f016020809104026020016040519081016040528092919081815260200182805461041d90610865565b801561046a5780601f1061043f5761010080835404028352916020019161046a565b820191906000526020600020905b81548152906001019060200180831161044d57829003601f168201915b5050505050815260200190600101906103d2565b5050505092505050919050565b600080fd5b600080fd5b600073ffffffffffffffffffffffffffffffffffffffff82169050919050565b60006104c082610495565b9050919050565b6104d0816104b5565b81146104db57600080fd5b50565b6000813590506104ed816104c7565b92915050565b600080fd5b600080fd5b600080fd5b60008083601f840112610518576105176104f3565b5b8235905067ffffffffffffffff811115610535576105346104f8565b5b602083019150836001820283011115610551576105506104fd565b5b9250929050565b6000806000604084860312156105715761057061048b565b5b600061057f868287016104de565b935050602084013567ffffffffffffffff8111156105a05761059f610490565b5b6105ac86828701610502565b92509250509250925092565b6000602082840312156105ce576105cd61048b565b5b60006105dc848285016104de565b91505092915050565b600081519050919050565b600082825260208201905092915050565b6000819050602082019050919050565b600081519050919050565b600082825260208201905092915050565b60005b8381101561064b578082015181840152602081019050610630565b60008484015250505050565b6000601f19601f8301169050919050565b600061067382610611565b61067d818561061c565b935061068d81856020860161062d565b61069681610657565b840191505092915050565b60006106ad8383610668565b905092915050565b6000602082019050919050565b60006106cd826105e5565b6106d781856105f0565b9350836020820285016106e985610601565b8060005b85811015610725578484038952815161070685826106a1565b9450610711836106b5565b925060208a019950506001810190506106ed565b50829750879550505050505092915050565b6000602082019050818103600083015261075181846106c2565b905092915050565b600082825260208201905092915050565b7f596f75206e656564207570646174652070726976696c65676520746f2061636360008201527f65737320746869732066756e6374696f6e000000000000000000000000000000602082015250565b60006107c6603183610759565b91506107d18261076a565b604082019050919050565b600060208201905081810360008301526107f5816107b9565b9050919050565b600082905092915050565b7f4e487b7100000000000000000000000000000000000000000000000000000000600052604160045260246000fd5b7f4e487b7100000000000000000000000000000000000000000000000000000000600052602260045260246000fd5b6000600282049050600182168061087d57607f821691505b6020821081036108905761088f610836565b5b50919050565b60008190508160005260206000209050919050565b60006020601f8301049050919050565b600082821b905092915050565b6000600883026108f87fffffffffffffffffffffffffffffffffffffffffffffffffffffffffffffffff826108bb565b61090286836108bb565b95508019841693508086168417925050509392505050565b6000819050919050565b6000819050919050565b600061094961094461093f8461091a565b610924565b61091a565b9050919050565b6000819050919050565b6109638361092e565b61097761096f82610950565b8484546108c8565b825550505050565b600090565b61098c61097f565b61099781848461095a565b505050565b5b818110156109bb576109b0600082610984565b60018101905061099d565b5050565b601f821115610a00576109d181610896565b6109da846108ab565b810160208510156109e9578190505b6109fd6109f5856108ab565b83018261099c565b50505b505050565b600082821c905092915050565b6000610a2360001984600802610a05565b1980831691505092915050565b6000610a3c8383610a12565b9150826002028217905092915050565b610a5683836107fc565b67ffffffffffffffff811115610a6f57610a6e610807565b5b610a798254610865565b610a848282856109bf565b6000601f831160018114610ab35760008415610aa1578287013590505b610aab8582610a30565b865550610b13565b601f198416610ac186610896565b60005b82811015610ae957848901358255600182019150602085019450602081019050610ac4565b86831015610b065784890135610b02601f891682610a12565b8355505b6001600288020188555050505b50505050505050565b7f596f75206e65656420726561642070726976696c65676520746f20616363657360008201527f7320746869732066756e6374696f6e0000000000000000000000000000000000602082015250565b6000610b78602f83610759565b9150610b8382610b1c565b604082019050919050565b60006020820190508181036000830152610ba781610b6b565b905091905056fea2646970667358221220c93176c90ffe39eeff191602556c081644efe15541d209ae2f86701a7673f2fa64736f6c63430008110033",
  "immutableReferences": {},
  "source": "pragma solidity ^0.8.0;\n\ncontract HealthRecord {\n    struct PatientProfile {\n        bool isCreated;\n        string[] medicalHistory;\n        mapping(address => bool) isDoctor;\n        mapping(address => string) medicalHistoryDoctorView;\n        mapping(address => bool) isInsurer;\n        mapping(address => string) medicaHistoryInsurerView;\n    }\n\n    mapping(address => PatientProfile) patientProfiles;\n\n    event PatientProfileCreated(address patient);\n    event PatientProfileUpdatedByOwner(address patient);\n    event PatientProfileDeleted(address patient);\n    event PatientProfileUpdatedByDoctor(address patient, address doctor);\n    event PatientProfileDoctorAssigned(address patien, address doctor);\n    event PatientProfileInsurerAssigned(address patien, address insurer);\n\n    modifier withReadPrivilege(address patientAddress) {\n        PatientProfile storage profile = patientProfiles[patientAddress];\n        require(\n            patientAddress == msg.sender ||\n                profile.isDoctor[msg.sender] ||\n                profile.isInsurer[msg.sender],\n            \"You need read privilege to access this function\"\n        );\n        _;\n    }\n\n    modifier withUpdatePrivilege(address patientAddress) {\n        PatientProfile storage profile = patientProfiles[patientAddress];\n        require(\n            patientAddress == msg.sender || profile.isDoctor[msg.sender],\n            \"You need update privilege to access this function\"\n        );\n        _;\n    }\n\n    modifier ownerOnly(address patientAddress) {\n        require(\n            patientAddress == msg.sender,\n            \"Only owner of this profile can access this function\"\n        );\n        _;\n    }\n\n    function readProfile(\n        address patientAddress\n    ) public view withReadPrivilege(patientAddress) returns (string[] memory) {\n        return patientProfiles[patientAddress].medicalHistory;\n    }\n\n    function updateProfile(\n        address patientAddress,\n        string calldata newRecord\n    ) public withUpdatePrivilege(patientAddress) {\n        patientProfiles[patientAddress].medicalHistory.push(newRecord);\n    }\n}\n",
  "sourcePath": "/home/hedgehog/apps/study/blockchains/blockchain-ehealth-records/contracts/HealthRecord.sol",
  "compiler": {
    "name": "solc",
    "version": "0.8.17+commit.8df45f5f.Emscripten.clang"
  },
  "schemaVersion": "3.4.11",
  "updatedAt": "2023-03-24T08:44:58.004Z",
  "devdoc": {
    "kind": "dev",
    "methods": {},
    "version": 1
  },
  "userdoc": {
    "kind": "user",
    "methods": {},
    "version": 1
  }
}